:020000040800F2
:100000000000052089200008991F0008A11F000892
:10001000A91F0008B11F0008B91F00080000000058
:10002000000000000000000000000000C11F0008E8
:10003000CF1F000800000000DD1F0008EB1F0008B4
:10004000D9200008D9200008D9200008D9200008AC
:10005000D9200008D9200008D9200008D92000089C
:10006000D9200008D9200008D9200008D92000088C
:10007000D9200008D9200008D9200008D92000087C
:10008000D9200008D9200008D9200008D92000086C
:10009000D9200008D9200008D9200008D92000085C
:1000A000D9200008D9200008D9200008D92000084C
:1000B000D9200008D9200008D9200008D92000083C
:1000C000D9200008D9200008D9200008D92000082C
:1000D000D9200008D9200008D9200008D92000081C
:1000E000D9200008D9200008D9200008D92000080C
:1000F000D9200008D9200008D9200008D9200008FC
:10010000D9200008D9200008D9200008D9200008EB
:10011000D9200008D9200008D9200008D9200008DB
:10012000D9200008D9200008D9200008D9200008CB
:10013000D9200008D9200008D9200008D9200008BB
:10014000D9200008D9200008D9200008D9200008AB
:10015000D9200008D9200008D9200008D92000089B
:10016000D9200008D9200008D9200008D92000088B
:10017000D9200008D9200008D9200008000000007C
:10018000D9200008D9200008D9200008D92000086B
:10019000D9200008D9200008D9200008D92000085B
:1001A000D9200008D9200008D9200008D92000084B
:1001B000D9200008D9200008D9200008D92000083B
:0801C000D9200008D920000835
:1001D00010B5054C237833B9044B13B10448AFF381
:1001E00000800123237010BD5C000020000000008F
:1001F0006C5A000808B5034B1BB103490348AFF321
:10020000008008BD00000000600000206C5A00085B
:10021000034613F8012B002AFBD1181A0138704746
:1002200001F0FF01102A2BDB10F0070F08D010F8A7
:10023000013B013A8B422DD010F0070F42B3F6D1AB
:10024000F0B441EA012141EA014122F007047FF0C4
:1002500000070023F0E80256083C85EA010586EA1B
:10026000010685FA47F5A3FA87F586FA47F6A5FA57
:1002700087F68EB9EED1F0BC01F0FF0102F0070263
:1002800032B110F8013B013A83EA010313B1F8D10E
:100290000020704701387047002D06BF35460338EF
:1002A000073815F0010F07D1013015F4807F02BF28
:1002B000013015F4C03F0130F0BC0138704700BF79
:1002C00081F0004102E000BF83F0004330B54FEA07
:1002D00041044FEA430594EA050F08BF90EA020F74
:1002E0001FBF54EA000C55EA020C7FEA645C7FEA07
:1002F000655C00F0E2804FEA5454D4EB5555B8BF2A
:100300006D420CDD2C4480EA020281EA030382EA9A
:10031000000083EA010180EA020281EA0303362D2C
:1003200088BF30BD11F0004F4FEA01314FF4801CFF
:100330004CEA113102D0404261EB410113F0004F11
:100340004FEA03334CEA133302D0524263EB4303C8
:1003500094EA050F00F0A780A4F10104D5F1200E66
:100360000DDB02FA0EFC22FA05F2801841F10001C1
:1003700003FA0EF2801843FA05F359410EE0A5F195
:1003800020050EF1200E012A03FA0EFC28BF4CF0C6
:10039000020C43FA05F3C01851EBE37101F000457C
:1003A00007D54FF0000EDCF1000C7EEB00006EEB89
:1003B0000101B1F5801F1BD3B1F5001F0CD3490813
:1003C0005FEA30004FEA3C0C04F101044FEA44526A
:1003D00012F5800F80F09A80BCF1004F08BF5FEAF1
:1003E000500C50F1000041EB045141EA050130BDD1
:1003F0005FEA4C0C404141EB0101013C28BFB1F5E3
:10040000801FE9D291F0000F04BF01460020B1FA2D
:1004100081F308BF2033A3F10B03B3F120020CDA00
:100420000C3208DD02F1140CC2F10C0201FA0CF0DE
:1004300021FA02F10CE002F11402D8BFC2F1200C43
:1004400001FA02F120FA0CFCDCBF41EA0C019040F9
:10045000E41AA2BF01EB0451294330BD6FEA040442
:100460001F3C1CDA0C340EDC04F11404C4F120022D
:1004700020FA04F001FA02F340EA030021FA04F33F
:1004800045EA030130BDC4F10C04C4F1200220FA96
:1004900002F001FA04F340EA0300294630BD21FAD4
:1004A00004F0294630BD94F0000F83F4801306BF9A
:1004B00081F480110134013D4EE77FEA645C18BF8E
:1004C0007FEA655C29D094EA050F08BF90EA020F25
:1004D00005D054EA000C04BF1946104630BD91EA1D
:1004E000030F1EBF0021002030BD5FEA545C05D120
:1004F0004000494128BF41F0004130BD14F580045F
:100500003CBF01F5801130BD01F0004545F0FE41D2
:1005100041F470014FF0000030BD7FEA645C1ABF07
:10052000194610467FEA655C1CBF0B46024650EA3E
:10053000013406BF52EA033591EA030F41F400216A
:1005400030BD00BF90F0000F04BF0021704730B5F0
:100550004FF4806404F132044FF000054FF00001C5
:1005600050E700BF90F0000F04BF0021704730B586
:100570004FF4806404F1320410F0004548BF40425B
:100580004FF000013EE700BF42004FEAE2014FEAB0
:1005900031014FEA02701FBF12F07F4393F07F4F8B
:1005A00081F06051704732F07F4208BF704793F08E
:1005B0007F4F04BF41F40021704730B54FF46074A1
:1005C00001F0004521F000411CE700BF50EA0102A4
:1005D00008BF704730B54FF000050AE050EA01024D
:1005E00008BF704730B511F0004502D5404261EBBD
:1005F00041014FF4806404F132045FEA915C3FF4FE
:10060000D8AE4FF003025FEADC0C18BF03325FEA9A
:10061000DC0C18BF033202EBDC02C2F1200300FA4B
:1006200003FC20FA02F001FA03FE40EA0E0021FA70
:1006300002F11444BDE600BF70B54FF0FF0C4CF45E
:10064000E06C1CEA11541DBF1CEA135594EA0C0F10
:1006500095EA0C0F00F0DEF82C4481EA030621EA4B
:100660004C5123EA4C5350EA013518BF52EA033586
:1006700041F4801143F4801338D0A0FB02CE4FF038
:100680000005E1FB02E506F00042E0FB03E54FF068
:100690000006E1FB03569CF0000F18BF4EF0010E60
:1006A000A4F1FF04B6F5007F64F5407404D25FEA5C
:1006B0004E0E6D4146EB060642EAC62141EA55510F
:1006C0004FEAC52040EA5E504FEACE2EB4F1FD0C51
:1006D00088BFBCF5E06F1ED8BEF1004F08BF5FEACF
:1006E000500E50F1000041EB045170BD06F0004681
:1006F00046EA010140EA020081EA0301B4EB5C042E
:10070000C2BFD4EB0C0541EA045170BD41F4801125
:100710004FF0000E013C00F3AB8014F1360FDEBF4A
:10072000002001F0004170BDC4F10004203C35DA26
:100730000C341BDC04F11404C4F1200500FA05F3A9
:1007400020FA04F001FA05F240EA020001F000424A
:1007500021F0004110EBD37021FA04F642EB0601C0
:100760005EEA430E08BF20EAD37070BDC4F10C04EA
:10077000C4F1200500FA04F320FA05F001FA04F2AE
:1007800040EA020001F0004110EBD37041F100019A
:100790005EEA430E08BF20EAD37070BDC4F12005A5
:1007A00000FA05F24EEA020E20FA04F301FA05F20D
:1007B00043EA020321FA04F001F0004121FA04F2B5
:1007C00020EA020000EBD3705EEA430E08BF20EA85
:1007D000D37070BD94F0000F0FD101F000464000BF
:1007E00041EB010111F4801F08BF013CF7D041EA41
:1007F000060195F0000F18BF704703F00046520045
:1008000043EB030313F4801F08BF013DF7D043EA15
:100810000603704794EA0C0F0CEA135518BF95EACB
:100820000C0F0CD050EA410618BF52EA4306D1D152
:1008300081EA030101F000414FF0000070BD50EA71
:10084000410606BF1046194652EA430619D094EAFB
:100850000C0F02D150EA013613D195EA0C0F05D1E5
:1008600052EA03361CBF104619460AD181EA030139
:1008700001F0004141F0FE4141F470014FF00000F1
:1008800070BD41F0FE4141F4780170BD70B54FF08C
:10089000FF0C4CF4E06C1CEA11541DBF1CEA13550C
:1008A00094EA0C0F95EA0C0F00F0A7F8A4EB0504EE
:1008B00081EA030E52EA03354FEA013100F08880E5
:1008C0004FEA03334FF0805545EA131343EA1263AE
:1008D0004FEA022245EA111545EA10654FEA002663
:1008E0000EF000419D4208BF964244F1FD0404F51C
:1008F000407402D25B084FEA3202B61A65EB030578
:100900005B084FEA32024FF480104FF4002CB6EB34
:10091000020E75EB030E22BFB61A754640EA0C00B4
:100920005B084FEA3202B6EB020E75EB030E22BFF4
:10093000B61A754640EA5C005B084FEA3202B6EB35
:10094000020E75EB030E22BFB61A754640EA9C00F4
:100950005B084FEA3202B6EB020E75EB030E22BFC4
:10096000B61A754640EADC0055EA060E18D04FEA82
:10097000051545EA16754FEA06164FEAC30343EA22
:1009800052734FEAC2025FEA1C1CC0D111F4801FEF
:100990000BD141EA00014FF000004FF0004CB6E7E8
:1009A00011F4801F04BF01430020B4F1FD0C88BF87
:1009B000BCF5E06F3FF6AFAEB5EB030C04BFB6EB92
:1009C000020C5FEA500C50F1000041EB045170BD85
:1009D0000EF0004E4EEA113114EB5C04C2BFD4EBB2
:1009E0000C0541EA045170BD41F480114FF0000E36
:1009F000013C90E645EA060E8DE60CEA135594EAB2
:100A00000C0F08BF95EA0C0F3FF43BAF94EA0C0FB4
:100A10000AD150EA01347FF434AF95EA0C0F7FF429
:100A200025AF104619462CE795EA0C0F06D152EA7D
:100A300003353FF4FDAE1046194622E750EA410661
:100A400018BF52EA43067FF4C5AE50EA41047FF472
:100A50000DAF52EA43057FF4EBAE12E74FEA4102D5
:100A6000B2F1E04324BFB3F5001CDCF1FE5C0DD90C
:100A700001F0004C4FEAC0024CEA5070B2F1004F56
:100A800040EB830008BF20F00100704711F0804F59
:100A900021D113F13872BCBF01F00040704741F41E
:100AA00080114FEA5252C2F11802C2F1200C10FA22
:100AB0000CF320FA02F018BF40F001004FEAC12306
:100AC0004FEAD32303FA0CFC40EA0C0023FA02F3AA
:100AD0004FEA4303CCE77FEA625307D150EA013380
:100AE0001EBF4FF0FE4040F44000704701F0004050
:100AF00040F0FE4040F40000704700BF53B94AB9CF
:100B0000002908BF00281CBF4FF0FF314FF0FF3015
:100B100000F088B9ADF1080C6DE904CE00F006F8DC
:100B2000DDF804E0DDE9022304B070472DE9F04769
:100B3000089D8E4604468846002B4AD18A421746B5
:100B400062D9B2FA82F64EB1C6F1200301FA06F874
:100B500020FA03F3B74043EA0808B4404FEA174EBF
:100B60001FFA87FCB8FBFEF1230C0EFB118843EA49
:100B7000084301FB0CF29A4209D9FB1801F1FF303E
:100B800080F0EA809A4240F2E78002393B449A1AA8
:100B9000A3B2B2FBFEF00EFB102243EA024300FBBD
:100BA0000CFC9C4509D9FB1800F1FF3280F0D6807F
:100BB0009C4540F2D3803B44023840EA0140A3EB1D
:100BC0000C0300211DB1F3400022C5E90032BDE84D
:100BD000F0878B4205D90DB1C5E900010021084617
:100BE000F5E7B3FA83F1002946D1734502D3824277
:100BF00000F20581841A6EEB030201209046002D5D
:100C0000E5D0C5E90048E2E7002A00F09080B2FA9A
:100C100082F6002E40F0A4808A1A030C4FEA174E89
:100C200080B2BCB20121B2FBFEFC0EFB1C2243EAE7
:100C3000024304FB0CF29A4207D9FB180CF1FF386F
:100C400002D29A4200F2E080C4469B1AB3FBFEF245
:100C50000EFB123340EA034302FB04F49C4207D923
:100C6000FB1802F1FF3002D29C4200F2CA80024619
:100C70001B1B42EA0C40A5E7C1F120068B4022FA7B
:100C800006F71F430EFA01F420FA06F32EFA06FEC9
:100C90004FEA1749234300FA01F81FFA87FCBEFB0D
:100CA000F9F01C0C09FB10EE44EA0E4400FB0CFEAC
:100CB000A64502FA01F209D93C1900F1FF3A80F089
:100CC0009C80A64540F2998002383C44A4EB0E0477
:100CD0001FFA83FEB4FBF9F309FB13444EEA044404
:100CE00003FB0CFCA44508D93C1903F1FF3E80F03E
:100CF0008280A4457FD9023B3C4443EA0040A4EBF8
:100D00000C04A0FB02EC64457346E14662D35FD05D
:100D10005DB1B8EB030264EB090404FA06F622FAAB
:100D200001F31E43CC40C5E9006400214FE7B1FB4D
:100D3000F2FC010C41EA0E4180B240EA01423B461E
:100D400038463C46B846BE462026B1FBF7F1A2EB3A
:100D5000080241EA0C4166E7014618E710462CE715
:100D6000C6F120022EFA02F3B740B14020FA02F297
:100D70004FEA174E0A43B3FBFEF8BCB20EFB183322
:100D8000110C41EA034108FB04F9B04089454FEAE0
:100D9000104380B23ED9791808F1FF3C01D2894551
:100DA0001FD8A1EB0901B1FBFEF909FB04F80EFB0A
:100DB000191192B242EA0142424529D2BA1809F108
:100DC000FF31C4D24245C2D2A9F102013A44BEE782
:100DD000F0459DD2BEEB02036CEB070C0138E146F7
:100DE00096E7A7EB09094944A8F1020CB1FBFEF90B
:100DF00009FB04F8DBE773467FE7504666E70846E1
:100E0000FDE63B44023A33E7ACF1020C3B441CE7FD
:100E100049469CE7A1EB0901C446B1FBFEF909FB79
:100E200004F8C4E7704700BF80B584B000AFF86035
:100E3000B9607A607B80FB68BA681A60FB687A6880
:100E40005A60FB687A881A81FB685868FB681B89BE
:100E50000122194601F054FCFB680122DA720022DB
:100E60000221F86800F04BF810220021F86800F029
:100E700046F800220921F86800F041F80321F868DB
:100E800000F0D6F80221F86800F0A4F8FB68DB7ADD
:100E900018461037BD4680BD80B584B000AFF860FD
:100EA0007A601A460B46FB721346BB72FB7A03F05C
:100EB0007F03DBB2FB72FB685868FB681B8900226A
:100EC000194601F01DFCFB68186807F10B01FF23B0
:100ED000012202F054FDFB681868BB7A9AB2FF2326
:100EE000796802F0C2FEFB685868FB681B89012222
:100EF000194601F005FC00BF1037BD4680BD80B526
:100F000084B000AF78600B46FB701346BB70FB7873
:100F100063F07F03FB70FB783B73BB787B737B686C
:100F200058687B681B890022194601F0E9FB7B6841
:100F3000186807F10C01FF23022202F020FD7B68F4
:100F400058687B681B890122194601F0D9FB00BF54
:100F50001037BD4680BD80B584B000AF78600B46C9
:100F6000FB700023FB7307F10F02F9780123786807
:100F7000FFF792FFFB7B18461037BD4680BD80B55A
:100F800084B000AF78600B46FB7007F108030021C6
:100F90000A461A800A469A7007F10802F978032374
:100FA0007868FFF779FF3B7AFB60FB681B02FB6008
:100FB0007B7A1A46FB681343FB60FB681B02FB60ED
:100FC000BB7A1A46FB681343FB60FB681846103770
:100FD000BD4680BD80B584B000AF78600B46FB7025
:100FE0007B68FA789A7200217868FFF7B4FF0346AD
:100FF000FB737B689B7A022B08D1FB7B63F07F033A
:10100000FB73FB7B23F04003FB7307E0FB7B03F0E8
:101010007F03FB73FB7B43F04003FB73FB7B1A46B0
:1010200000217868FFF76BFF00BF1037BD4680BD19
:1010300080B584B000AF78600B46FB700121786802
:10104000FFF789FF0346FB73FB7B23F00F03FB7362
:1010500097F9033003F00F035AB297F90F30134397
:101060005BB2FB73FB7B1A4601217868FFF747FFF1
:1010700000BF1037BD4680BD80B584B000AF78603A
:101080007B689B7A022B14D000217868FFF763FFFE
:101090000346FB73FB7B03F07F03FB73FB7B43F097
:1010A0004003FB73FB7B1A4600217868FFF727FF9C
:1010B00000E000BF1037BD4680BD80B582B000AFF4
:1010C00078607B689B7A022B01D101230BE0002121
:1010D0007868FFF740FF034603F04003002B0CBF86
:1010E00001230023DBB218460837BD4680BD00004F
:1010F00080B584B000AF78607B689B7A002B1BD1F1
:101100007868FFF7B9FF01F039F8B8600BE001F03B
:1011100035F80246BB68D31AFA2B01D91B4B2DE0D8
:101120000A2001F037F87868FFF7C7FF034683F01D
:101130000103DBB2002BEAD10C217868FFF71FFF17
:101140000346FB60FB6803F40003002B03D0FB683D
:1011500043F07F43FB60FB685B11FB60F868FFF7BF
:1011600001FA4FF000024FF07E53FFF765FA024696
:101170000B4610461946FFF771FC034607EE903AFE
:10118000B0EE670A1037BD4680BD00BF0000C07FCB
:101190002DE9B04F9AB006AF4023504A504951480C
:1011A000FFF742FE034683F00103DBB2002B0AD0B7
:1011B0004FF0FF332A224C494C4803F0FFFA0A2033
:1011C00000F0E8FFFBE78023444A45494848FFF721
:1011D0002BFE034683F00103DBB2002B0AD04FF055
:1011E000FF332A224049414803F0E8FA0A2000F080
:1011F000D1FFFBE704233F4A39493F48FFF714FE7C
:10120000034683F00103DBB2002B0AD04FF0FF331B
:101210002A223549354803F0D1FA0A2000F0BAFFF6
:10122000FBE70823334A2E493348FFF7FDFD034609
:1012300083F00103DBB2002B0AD04FF0FF332A22E8
:1012400029492A4803F0BAFA0A2000F0A3FFFBE775
:10125000C82000F09FFF2348FFF74AFF87ED130ADD
:101260002348FFF745FF87ED120A2348FFF740FFA9
:1012700087ED110A2148FFF73BFF87ED100AF86C54
:10128000FFF782F982468B46B86CFFF77DF904467A
:101290000D46786CFFF778F980468946386CFFF781
:1012A00073F902460B463846CDE90423CDE902899D
:1012B000CDE9004552465B46114903F037FF3B46F6
:1012C0001846FEF7A5FF03469AB239464FF0FF33A2
:1012D000064803F073FA00BFBDE700BF00180240E4
:1012E000A800002078000020845A00080C0100208B
:1012F0008400002000200240900000209C0000207C
:10130000B05A000880B500AF00F0E7FE00F00AF820
:1013100000F0DEF800F06EF800F0AAF8FFF738FFF2
:1013200000BFFDE780B594B000AF07F12003302285
:101330000021184603F01CFF07F10C0300221A607D
:101340005A609A60DA601A61284B1B6C274A43F096
:1013500080531364254B1B6C03F08053BB60BB6848
:10136000234B1B6823F44043214A43F4804313601A
:101370001F4B1B6803F440437B607B6802233B6286
:101380000123FB6210233B630223BB630023FB6347
:101390000A233B64D2237B640223BB640223FB64E5
:1013A00007F12003184601F0C5F90346002B01D0D0
:1013B00000F0E4FC0F23FB6002233B6180237B6190
:1013C0004FF48053BB614FF48053FB6107F10C0372
:1013D0000221184601F052FC0346002B01D000F018
:1013E000CDFC00BF5037BD4680BD00BF0038024075
:1013F0000070004080B500AF1B4B1C4A1A601A4BAE
:101400004FF482725A60184B00229A60164B4FF4C8
:10141000E062DA60144B00221A61134B01225A6118
:10142000114B4FF400729A610F4B1022DA610E4B90
:1014300000221A620C4B00225A620B4B00229A6265
:10144000094B0722DA62084B00221A63064B00227E
:101450005A63054802F0E8F90346002B01D000F07A
:101460008DFC00BF80BD00BFA800002000380040F8
:1014700080B500AF144B154A1A60134B4FF4E1329C
:101480005A60114B00229A600F4B0022DA600E4B1B
:1014900000221A610C4B0C225A610B4B00229A61FC
:1014A000094B0022DA61084B00221A62064B002227
:1014B0005A62054803F034F90346002B01D000F0CE
:1014C0005DFC00BF80BD00BF0C010020001001408A
:1014D00080B590B000AF07F12C0300221A605A606B
:1014E0009A60DA601A61AD4B1B6BAC4A43F0100393
:1014F0001363AA4B1B6B03F01003BB62BB6AA74BC1
:101500001B6BA64A43F040031363A44B1B6B03F011
:1015100040037B627B6AA14B1B6BA04A43F0020332
:1015200013639E4B1B6B03F002033B623B6A9B4BB6
:101530001B6B9A4A43F008031363984B1B6B03F031
:101540000803FB61FB69954B1B6B944A43F0040352
:101550001363924B1B6B03F00403BB61BB698F4B9E
:101560001B6B8E4A43F0010313638C4B1B6B03F020
:1015700001037B617B69894B1B6B884A43F40073D1
:101580001363864B1B6B03F400733B613B69834B16
:101590001B6B824A43F480731363804B1B6B03F411
:1015A0008073FB60FB687D4B1B6B7C4A43F480635C
:1015B00013637A4B1B6B03F48063BB60BB68774B90
:1015C0001B6B764A43F020031363744B1B6B03F0D1
:1015D00020037B607B68714B1B6B704A43F0800378
:1015E00013636E4B1B6B03F080033B603B6801226F
:1015F00020216B4801F084F8002241F20C01694877
:1016000001F07EF800220821674801F079F80022F5
:101610004FF40051654801F073F80022C821644876
:1016200001F06EF81023FB6202233B6300237B630F
:101630000023BB630E23FB6307F12C0319465D48AF
:1016400000F0B2FE0823FB6200233B6300237B63B0
:1016500007F12C031946574800F0A6FE0423FB624D
:1016600002233B6300237B630323BB630923FB63E8
:1016700007F12C0319464F4800F096FE4FF4D04373
:10168000FB6202233B6300237B630323BB630B23C7
:10169000FB6307F12C031946454800F085FE4FF621
:1016A0008373FB6202233B6300237B630323BB63DF
:1016B0000C23FB6307F12C0319463E4800F074FE2F
:1016C0004FF44073FB6212233B6300237B630023D0
:1016D000BB630423FB6307F12C031946364800F073
:1016E00063FE43F62343FB6202233B6300237B63D9
:1016F0000323BB630A23FB6307F12C0319462E481F
:1017000000F052FE1023FB6202233B6300237B6345
:101710000023BB630223FB6307F12C031946264811
:1017200000F042FE8023FB6202233B6300237B63C5
:101730000023BB630823FB6307F12C0319461848F9
:1017400000F032FE4FF4F853FB6202233B630023A8
:101750007B630323BB630C23FB6307F12C03194654
:10176000164800F021FE4FF40043FB6202233B6366
:1017700000237B630023BB630123FB6307F12C037E
:1017800019460F4800F010FE6023FB6202233B6302
:1017900000237B630023BB630D2313E0003802406A
:1017A000000C02400020024000280240001C0240C1
:1017B00000180240001002400004024000080240ED
:1017C00000000240FB6307F12C031946BC4800F0FF
:1017D000EBFD4023FB6202233B6300237B63032377
:1017E000BB630A23FB6307F12C031946B54800F0DD
:1017F000DBFD48F23313FB6202233B6300237B6370
:101800000323BB630C23FB6307F12C031946AE488B
:1018100000F0CAFD4EF6FF73FB6202233B63002318
:101820007B630023BB630E23FB6307F12C03194684
:10183000A64800F0B9FD4FF48053FB6200233B63E0
:1018400000237B6307F12C031946A04800F0ACFD90
:101850004023FB624FF490133B6300237B6307F14B
:101860002C0319469A4800F09FFD4CF20373FB626B
:1018700002233B6300237B630323BB630C23FB63D3
:1018800007F12C031946924800F08EFD4FF4E05307
:10189000FB6202233B6300237B630323BB630A23B6
:1018A000FB6307F12C0319468A4800F07DFDF02305
:1018B000FB6202233B6300237B630023BB630A2399
:1018C000FB6307F12C031946834800F06DFDF723F5
:1018D000FB6202233B6300237B630023BB630E2375
:1018E000FB6307F12C0319467C4800F05DFD4FF4C3
:1018F0008053FB6202233B6300237B630023BB63B3
:101900000923FB6307F12C0319466F4800F04CFDD7
:101910004FF48063FB6202233B6300237B6300235D
:10192000BB630A23FB6307F12C031946664800F0EA
:101930003BFD2023FB6201233B6300237B630023E9
:10194000BB6307F12C031946614800F02DFD082305
:10195000FB6202233B6300237B630023BB630D23F5
:10196000FB6307F12C031946594800F01DFD41F2B5
:101970000C03FB6201233B6300237B630023BB63F7
:1019800007F12C031946544800F00EFD4FF40053A4
:10199000FB6200233B6300237B6307F12C031946A2
:1019A0004F4800F001FD4FF63F03FB6202233B630B
:1019B00000237B630323BB630C23FB6307F12C032E
:1019C0001946484800F0F0FC4FF44643FB620223FE
:1019D0003B6300237B630023BB630E23FB6307F1A0
:1019E0002C0319463C4800F0DFFC0823FB6201236E
:1019F0003B6300237B630023BB6307F12C03194681
:101A0000364800F0D1FC4FF40073FB6202233B63C5
:101A100000237B630023BB630D23FB6307F12C03CF
:101A20001946294800F0C0FC1023FB6200233B63E9
:101A300000237B6307F12C031946254800F0B4FC12
:101A40000423FB6202233B6300237B630323BB630A
:101A50000C23FB6307F12C0319461D4800F0A4FC7E
:101A600048F20403FB6200233B6300237B6307F11E
:101A70002C0319461C4800F097FC4FF40053FB62FE
:101A800001233B6300237B630023BB6307F12C032B
:101A90001946154800F088FC4FF4BC43FB62022352
:101AA0003B6300237B630023BB630D23FB6307F1D0
:101AB0002C0319460C4800F077FC012316E000BF08
:101AC00000100240000402400018024000240240BE
:101AD000000C0240000002400020024000280240AA
:101AE0000008024000140240001C0240FB62022376
:101AF0003B6300237B630023BB630223FB6307F18B
:101B00002C031946954800F04FFC4FF48073FB629C
:101B100002233B6300237B630023BB630123FB633E
:101B200007F12C0319468E4800F03EFC4FF4005399
:101B3000FB624FF490133B6300237B6307F12C039C
:101B40001946864800F030FCC023FB6202233B6349
:101B500000237B630323BB630823FB6307F12C0390
:101B60001946804800F020FC1023FB6202233B63EF
:101B700000237B630323BB630A23FB6307F12C036E
:101B80001946794800F010FC2823FB6202233B63CE
:101B900000237B630323BB630C23FB6307F12C034C
:101BA0001946714800F000FCC823FB6201233B6327
:101BB00000237B630023BB6307F12C0319466B48AA
:101BC00000F0F2FB4FF4F863FB6203233B63002356
:101BD0007B6307F12C031946654800F0E5FB0823F9
:101BE000FB6202233B6300237B630323BB630C2361
:101BF000FB6307F12C0319465A4800F0D5FB052377
:101C0000FB6202233B6300237B630323BB630A2342
:101C1000FB6307F12C031946524800F0C5FB322341
:101C2000FB6202233B6300237B630323BB630B2321
:101C3000FB6307F12C0319464A4800F0B5FB042367
:101C4000FB6202233B6300237B630323BB63092303
:101C5000FB6307F12C031946464800F0A5FB4FF43F
:101C60006053FB6202233B6300237B630323BB635C
:101C70000923FB6307F12C0319463F4800F094FB4E
:101C80000423FB6200233B6300237B6307F12C03E7
:101C90001946364800F088FB8623FB6202233B632B
:101CA00000237B630323BB630B23FB6307F12C033C
:101CB00019462B4800F078FB0123FB6203233B63AA
:101CC00000237B6307F12C031946254800F06CFBC9
:101CD0005023FB6202233B6300237B630023BB632F
:101CE0000D23FB6307F12C0319461D4800F05CFB34
:101CF0004FF4C073FB6212233B6300237B63032317
:101D0000BB630423FB6307F12C031946164800F05C
:101D10004BFB2823FB6202233B6300237B630323EB
:101D2000BB630A23FB6307F12C0319460C4800F040
:101D30003BFB4023FB6202233B6300237B630023C6
:101D4000BB630923FB6307F12C031946064800F027
:101D50002BFB00BF4037BD4680BD00BF00200240C6
:101D60000000024000080240001C0240001802402F
:101D70000014024000040240000C024080B400AF96
:101D800072B600BF00BFFDE780B483B000AF0F4B59
:101D90001B6C0E4A43F0805313640C4B1B6C03F016
:101DA00080537B607B68094B5B6C084A43F480433B
:101DB0005364064B5B6C03F480433B603B6800BF9D
:101DC0000C37BD465DF8047B704700BF0038024009
:101DD00080B58AB000AF786007F1140300221A6062
:101DE0005A609A60DA601A617B681B68254A9342E0
:101DF00044D1254B1B6C244A43F480431364224B8B
:101E00001B6C03F480433B613B691F4B1B6B1E4AF9
:101E100043F4807313631C4B1B6B03F48073FB60F0
:101E2000FB68194B1B6B184A43F002031363164BF4
:101E30001B6B03F00203BB60BB6802237B610223C0
:101E4000BB610023FB6100233B6205237B6207F13A
:101E5000140319460D4800F0A7FA4FF440437B6184
:101E60000223BB610023FB6100233B6205237B62ED
:101E700007F114031946064800F096FA00BF283708
:101E8000BD4680BD003800400038024000200240BE
:101E90000004024080B5ACB000AF786007F19C034D
:101EA00000221A605A609A60DA601A6107F118031A
:101EB00084220021184603F05BF97B681B68324AD4
:101EC00093425CD14023BB610023FB6507F11803FB
:101ED000184601F0B9F80346002B01D0FFF74EFF7A
:101EE0002A4B5B6C294A43F010035364274B5B6C0D
:101EF00003F010037B617B69244B1B6B234A43F087
:101F000002031363214B1B6B03F002033B613B692C
:101F10001E4B1B6B1D4A43F0010313631B4B1B6BD2
:101F200003F00103FB60FB688023C7F89C300223A9
:101F3000C7F8A0300023C7F8A4300023C7F8A830A2
:101F40000723C7F8AC3007F19C031946104800F08E
:101F50002BFA4FF40073C7F89C300223C7F8A03067
:101F60000023C7F8A4300023C7F8A8300723C7F818
:101F7000AC3007F19C031946064800F015FA00BF83
:101F8000B037BD4680BD00BF0010014000380240A0
:101F9000000402400000024080B400AF00BFFDE733
:101FA00080B400AF00BFFDE780B400AF00BFFDE725
:101FB00080B400AF00BFFDE780B400AF00BFFDE715
:101FC00080B400AF00BFBD465DF8047B704780B4AD
:101FD00000AF00BFBD465DF8047B704780B400AF22
:101FE00000BFBD465DF8047B704780B500AF00F0D0
:101FF000B1F800BF80BD000080B586B000AF78604A
:10200000144A154BD31A7B617B693B61134B1B68E8
:10201000002B02D1114B124A1A60104B1A687B68D0
:1020200013443A699A4207D203F0AAF803460C22F5
:102030001A604FF0FF3309E0084B1B68FB60074B49
:102040001A687B681344054A1360FB681846183702
:10205000BD4680BD00000520000400009401002062
:10206000E802002080B400AF064BD3F88830054A60
:1020700043F47003C2F8883000BFBD465DF8047BAE
:10208000704700BF00ED00E0DFF834D0FFF7EAFF53
:102090000C480D490D4A002302E0D458C4500433C3
:1020A000C4188C42F9D30A4A0A4C002301E0136099
:1020B0000432A242FBD303F069F8FFF723F970471B
:1020C00000000520000000205C000020385B0008B4
:1020D0005C000020E4020020FEE780B500AF032092
:1020E00000F02EF90F2000F005F8FFF74DFE002359
:1020F000184680BD80B582B000AF7860124B1A6878
:10210000124B1B7819464FF47A73B3FBF1F3B2FB11
:10211000F3F3184600F03BF90346002B01D00123EE
:102120000EE07B680F2B0AD8002279684FF0FF3051
:1021300000F011F9064A7B681360002300E00123D8
:1021400018460837BD4680BD00000020080000206A
:102150000400002080B400AF064B1B781A46064BE3
:102160001B681344044A136000BFBD465DF8047B3E
:10217000704700BF080000209801002080B400AF25
:10218000034B1B681846BD465DF8047B704700BFD3
:102190009801002080B584B000AF7860FFF7EEFFB3
:1021A000B8607B68FB60FB68B3F1FF3F05D00A4B6A
:1021B0001B781A46FB681344FB6000BFFFF7DEFF85
:1021C0000246BB68D31AFA689A42F7D800BF00BF2C
:1021D0001037BD4680BD00BF0800002080B485B028
:1021E00000AF78607B6803F00703FB600B4BDB6894
:1021F000BB60BA684FF6FF031340BB60FB681A026E
:10220000BB681A43064B1343BB60044ABB68D360E8
:1022100000BF1437BD465DF8047B704700ED00E059
:102220000000FA0580B400AF044BDB681B0A03F022
:1022300007031846BD465DF8047B704700ED00E0DB
:1022400080B483B000AF03463960FB7197F9073063
:10225000002B0ADB3B68DAB20C4997F90730120110
:10226000D2B20B4483F800230AE03B68DAB2084993
:10227000FB7903F00F03043B1201D2B20B441A7630
:1022800000BF0C37BD465DF8047B704700E100E0FD
:1022900000ED00E080B489B000AFF860B9607A600A
:1022A000FB6803F00703FB61FB69C3F10703042B21
:1022B00028BF0423BB61FB690433062B02D9FB69E9
:1022C000033B00E000237B614FF0FF32BB6902FA61
:1022D00003F3DA43BB681A407B699A404FF0FF3141
:1022E0007B6901FA03F3D9437B680B40134318461B
:1022F0002437BD465DF8047B7047000080B582B08E
:1023000000AF78607B68013BB3F1807F01D301238C
:102310000FE00A4A7B68013B53600F214FF0FF300A
:10232000FFF78EFF054B00229A60044B07221A60CC
:10233000002318460837BD4680BD00BF10E000E00E
:1023400080B582B000AF78607868FFF747FF00BFC4
:102350000837BD4680BD80B586B000AF0346B96082
:102360007A60FB7300237B61FFF75CFF78617A681A
:10237000B9687869FFF78EFF024697F90F3011466A
:102380001846FFF75DFF00BF1837BD4680BD80B51A
:1023900082B000AF78607868FFF7B0FF0346184658
:1023A0000837BD4680BD000080B489B000AF7860BA
:1023B00039600023FB6100237B6100233B61002324
:1023C000BB610023FB6175E10122FB6902FA03F3A3
:1023D0007B613B681B687A6913403B613A697B69A2
:1023E0009A4240F064813B685B6803F00303012B71
:1023F00005D03B685B6803F00303022B30D17B6898
:102400009B68BB61FB695B00032202FA03F3DB43B9
:10241000BA691340BB613B68DA68FB695B0002FA8A
:1024200003F3BA691343BB617B68BA699A607B683E
:102430005B68BB610122FB6902FA03F3DB43BA6903
:102440001340BB613B685B681B0903F00102FB6939
:1024500002FA03F3BA691343BB617B68BA695A6035
:102460003B685B6803F00303032B17D07B68DB68D2
:10247000BB61FB695B00032202FA03F3DB43BA6929
:102480001340BB613B689A68FB695B0002FA03F387
:10249000BA691343BB617B68BA69DA603B685B6801
:1024A00003F00303022B23D1FB69DA087B680832AF
:1024B00053F82230BB61FB6903F007039B000F2236
:1024C00002FA03F3DB43BA691340BB613B681A6944
:1024D000FB6903F007039B0002FA03F3BA69134395
:1024E000BB61FB69DA087B680832B96943F82210DE
:1024F0007B681B68BB61FB695B00032202FA03F384
:10250000DB43BA691340BB613B685B6803F00302BD
:10251000FB695B0002FA03F3BA691343BB617B6892
:10252000BA691A603B685B6803F44033002B00F023
:10253000BE80664B5B6C654A43F480435364634BD7
:102540005B6C03F48043FB60FB68614AFB699B089A
:10255000023352F82330BB61FB6903F003039B0095
:102560000F2202FA03F3DB43BA691340BB617B68B5
:10257000584A934237D07B68574A934231D07B68A0
:10258000564A93422BD07B68554A934225D07B68AC
:10259000544A93421FD07B68534A934219D07B68B8
:1025A000524A934213D07B68514A93420DD07B68C4
:1025B000504A934207D07B684F4A934201D1092386
:1025C00012E00A2310E008230EE007230CE00623A4
:1025D0000AE0052308E0042306E0032304E00223C5
:1025E00002E0012300E00023FA6902F003029200F6
:1025F0009340BA691343BB613549FB699B080233B9
:10260000BA6941F823203D4B9B68BB613B69DB43C2
:10261000BA691340BB613B685B6803F48013002B0D
:1026200003D0BA693B691343BB61344ABB69936009
:10263000324BDB68BB613B69DB43BA691340BB616A
:102640003B685B6803F40013002B03D0BA693B6955
:102650001343BB61294ABB69D360284B5B68BB61EC
:102660003B69DB43BA691340BB613B685B6803F4B9
:102670000033002B03D0BA693B691343BB611F4A87
:10268000BB6953601D4B1B68BB613B69DB43BA6987
:102690001340BB613B685B6803F48033002B03D0BD
:1026A000BA693B691343BB61144ABB691360FB6998
:1026B0000133FB61FB690F2B7FF686AE00BF00BFC5
:1026C0002437BD465DF8047B704700BF00380240E8
:1026D00000380140000002400004024000080240AF
:1026E000000C02400010024000140240001802409A
:1026F000001C02400020024000240240003C014037
:1027000080B483B000AF78600B467B8013467B704B
:102710007B78002B03D07A887B689A6103E07B8802
:102720001A047B689A6100BF0C37BD465DF8047BD4
:102730007047000080B586B000AF78600023FB755D
:102740007B68002B01D1012391E27B681B6803F0B9
:102750000103002B00F08780964B9B6803F00C036D
:10276000042B0CD0934B9B6803F00C03082B12D165
:10277000904B5B6803F48003B3F5800F0BD18D4B56
:102780001B6803F40033002B6CD07B685B68002B64
:1027900068D101236BE27B685B68B3F5803F06D1AB
:1027A000844B1B68834A43F4803313602EE07B68BC
:1027B0005B68002B0CD17F4B1B687E4A23F480336F
:1027C00013607C4B1B687B4A23F4802313601DE05D
:1027D0007B685B68B3F5A02F0CD1764B1B68754AFC
:1027E00043F480231360734B1B68724A43F48033B5
:1027F00013600BE06F4B1B686E4A23F48033136049
:102800006C4B1B686B4A23F4802313607B685B6806
:10281000002B13D0FFF7B2FC386108E0FFF7AEFCE5
:1028200002463B69D31A642B01D903231FE2614B93
:102830001B6803F40033002BF0D014E0FFF79EFC7C
:10284000386108E0FFF79AFC02463B69D31A642B13
:1028500001D903230BE2574B1B6803F40033002B11
:10286000F0D100E000BF7B681B6803F00203002B7F
:1028700069D0504B9B6803F00C03002B0BD04D4BE1
:102880009B6803F00C03082B1CD14A4B5B6803F4D4
:102890008003002B16D1474B1B6803F00203002B6B
:1028A00005D07B68DB68012B01D00123DFE1414BC0
:1028B0001B6823F0F8027B681B69DB003D4913436A
:1028C0000B6040E07B68DB68002B23D0394B1B6832
:1028D000384A43F001031360FFF750FC386108E009
:1028E000FFF74CFC02463B69D31A022B01D90323A4
:1028F000BDE1304B1B6803F00203002BF0D02D4BE1
:102900001B6823F0F8027B681B69DB00294913432D
:102910000B6018E0274B1B68264A23F00103136065
:10292000FFF72CFC386108E0FFF728FC02463B6902
:10293000D31A022B01D9032399E11E4B1B6803F024
:102940000203002BF0D17B681B6803F00803002B07
:1029500038D07B685B69002B19D0164B5B6F154A2A
:1029600043F001035367FFF709FC386108E0FFF704
:1029700005FC02463B69D31A022B01D9032376E1F9
:102980000C4B5B6F03F00203002BF0D01AE0094BF5
:102990005B6F084A23F001035367FFF7EFFB3861D1
:1029A0000AE0FFF7EBFB02463B69D31A022B03D97F
:1029B00003235CE100380240914B5B6F03F002039C
:1029C000002BEED17B681B6803F00403002B00F0A2
:1029D000A4808B4B1B6C03F08053002B0DD1884BD4
:1029E0001B6C874A43F080531364854B1B6C03F0C8
:1029F0008053BB60BB680123FB75824B1B6803F4EB
:102A00008073002B18D17F4B1B687E4A43F4807380
:102A10001360FFF7B3FB386108E0FFF7AFFB024636
:102A20003B69D31A642B01D9032320E1754B1B6842
:102A300003F48073002BF0D07B689B68012B06D1D8
:102A40006F4B1B6F6E4A43F0010313672DE07B68E9
:102A50009B68002B0CD16A4B1B6F694A23F0010362
:102A60001367674B1B6F664A23F0040313671CE070
:102A70007B689B68052B0CD1614B1B6F604A43F050
:102A8000040313675E4B1B6F5D4A43F0010313673A
:102A90000BE05B4B1B6F5A4A23F001031367584B43
:102AA0001B6F574A23F0040313677B689B68002B56
:102AB00015D0FFF763FB38610AE0FFF75FFB0246C2
:102AC0003B69D31A41F28832934201D90323CEE005
:102AD0004B4B1B6F03F00203002BEED014E0FFF70B
:102AE0004DFB38610AE0FFF749FB02463B69D31A08
:102AF00041F28832934201D90323B8E0404B1B6F67
:102B000003F00203002BEED1FB7D012B05D13C4BE2
:102B10001B6C3B4A23F0805313647B689B69002B3A
:102B200000F0A480364B9B6803F00C03082B6BD09D
:102B30007B689B69022B49D1314B1B68304A23F0DB
:102B400080731360FFF71AFB386108E0FFF716FB8C
:102B500002463B69D31A022B01D9032387E0284B95
:102B60001B6803F00073002BF0D17B68DA697B6887
:102B70001B6A1A437B685B6A9B011A437B689B6AEA
:102B80005B08013B1B041A437B68DB6A1B0613438B
:102B90001B4A43F000535360194B1B68184A43F01B
:102BA00080731360FFF7EAFA386108E0FFF7E6FA8E
:102BB00002463B69D31A022B01D9032357E0104B7D
:102BC0001B6803F00073002BF0D04FE00C4B1B6828
:102BD0000B4A23F080731360FFF7D0FA386108E0E6
:102BE000FFF7CCFA02463B69D31A022B01D9032323
:102BF0003DE0034B1B6803F00073002BF0D135E080
:102C000000380240007000401B4B5B68FB607B6833
:102C10009B69012B28D0FB6803F480027B68DB6989
:102C20009A4221D1FB6803F03F027B681B6A9A42FB
:102C30001AD1FA6847F6C07313407A68526A920153
:102C4000934211D1FB6803F440327B689B6A5B08B6
:102C5000013B1B049A4207D1FB6803F070627B685A
:102C6000DB6A1B069A4201D0012300E000231846CC
:102C70001837BD4680BD00BF0038024080B584B023
:102C800000AF786039600023FB607B68002B01D1C6
:102C90000123D0E06A4B1B6803F00F033A689A42A5
:102CA00010D9674B1B6823F00F0265493B6813433B
:102CB0000B60634B1B6803F00F033A689A4201D024
:102CC0000123B8E07B681B6803F00203002B20D0CF
:102CD0007B681B6803F00403002B05D0594B9B68ED
:102CE000584A43F4E05393607B681B6803F0080381
:102CF000002B05D0534B9B68524A43F460439360CA
:102D0000504B9B6823F0F0027B689B684D4913434E
:102D10008B607B681B6803F00103002B40D07B684D
:102D20005B68012B07D1474B1B6803F40033002B72
:102D300015D101237FE07B685B68022B07D1414BF3
:102D40001B6803F00073002B09D1012373E03D4B96
:102D50001B6803F00203002B01D101236BE0394B08
:102D60009B6823F003027B685B68364913438B60E2
:102D7000FFF704FAF8600AE0FFF700FA0246FB6882
:102D8000D31A41F28832934201D9032353E02D4BE9
:102D90009B6803F00C027B685B689B009A42EBD156
:102DA000274B1B6803F00F033A689A4210D2244B5A
:102DB0001B6823F00F0222493B6813430B60204B32
:102DC0001B6803F00F033A689A4201D0012332E0F6
:102DD0007B681B6803F00403002B08D0194B9B6829
:102DE00023F4E0527B68DB68164913438B607B68F1
:102DF0001B6803F00803002B09D0124B9B6823F4D7
:102E000060427B681B69DB000E4913438B6000F056
:102E100021F802460B4B9B681B0903F00F030A497C
:102E2000CB5C22FA03F3094A1360094B1B6818466E
:102E3000FFF760F9002318461037BD4680BD00BF7C
:102E4000003C024000380240DC5A0008000000202C
:102E5000040000202DE9B04F90B000AF00237B6349
:102E60000023FB6300233B630023BB63594B9B6838
:102E700003F00C03082B0DD0082B00F2A180002BCF
:102E800002D0042B03D09BE0534BBB639BE0534B1E
:102E9000BB6398E04F4B5B6803F03F037B634D4B94
:102EA0005B6803F48003002B28D04A4B5B689B09C6
:102EB00000223B627A623B6AC3F308000021474B61
:102EC00003FB01F2002300FB03F31344434AA0FB7E
:102ED0000212FA620A46BA62FA6A1344FB627B6B18
:102EE0000022BB61FA61D7E90623D7E90A01FDF7A1
:102EF00005FE02460B461346FB6353E0354B5B6809
:102F00009B0900223B617A613B69C3F3080A4FF0D9
:102F1000000B52465B464FF000004FF00001590194
:102F200041EAD261500102460B46B2EB0A0863EB5C
:102F30000B094FF000024FF000034FEA891343EAF8
:102F400098634FEA8812B2EB080463EB09054FF06F
:102F500000024FF00003EB0043EA5473E200144612
:102F60001D4614EB0A033B6045EB0B037B604FF0FF
:102F700000024FF00003D7E9004529468B022146A5
:102F800043EA915321468A02104619467B6B002280
:102F9000BB60FA60D7E90223FDF7B0FD02460B469D
:102FA0001346FB630B4B5B681B0C03F003030133FD
:102FB0005B003B63FA6B3B6BB2FBF3F3BB6302E07A
:102FC000054BBB6300BFBB6B18464037BD46BDE831
:102FD000B08F00BF003802400024F40040787D012B
:102FE00080B400AF034B1B681846BD465DF8047BF8
:102FF000704700BF0000002080B500AFFFF7F0FF72
:103000000246054B9B689B0A03F007030349CB5C10
:1030100022FA03F3184680BD00380240EC5A00083B
:1030200080B500AFFFF7DCFF0246054B9B685B0BEA
:1030300003F007030349CB5C22FA03F3184680BD73
:1030400000380240EC5A000880B588B000AF7860C4
:1030500000237B6100233B610023FB600023FB61B5
:103060000023BB617B681B6803F00103002B12D0B7
:10307000694B9B68684A23F400039360664B9A6827
:103080007B685B6B644913438B607B685B6B002BD5
:1030900001D10123FB617B681B6803F40023002B33
:1030A00017D05D4BD3F88C3023F440127B68DB6B78
:1030B00059491343C1F88C307B68DB6BB3F5801F33
:1030C00001D10123FB617B68DB6B002B01D1012364
:1030D000BB617B681B6803F48013002B17D04E4B39
:1030E000D3F88C3023F440027B681B6C4A491343AD
:1030F000C1F88C307B681B6CB3F5800F01D10123C4
:10310000FB617B681B6C002B01D10123BB617B68D9
:103110001B6803F08073002B01D00123FB617B68E7
:103120001B6803F02003002B00F08B803A4B1B6CD4
:10313000394A43F080531364374B1B6C03F08053C0
:10314000BB60BB68354B1B68344A43F48073136023
:10315000FFF714F8786108E0FFF710F802467B6982
:10316000D31A642B01D9032357E32C4B1B6803F4B8
:103170008073002BF0D0284B1B6F03F440733B612E
:103180003B69002B35D07B681B6B03F440733A69B5
:103190009A422ED0204B1B6F23F440733B611E4B91
:1031A0001B6F1D4A43F4803313671B4B1B6F1A4A76
:1031B00023F480331367184A3B691367164B1B6F60
:1031C00003F00103012B14D1FEF7D8FF78610AE068
:1031D000FEF7D4FF02467B69D31A41F2883293424C
:1031E00001D9032319E30C4B1B6F03F00203002BDF
:1031F000EED07B681B6B03F44073B3F5407F11D1B5
:10320000054B9B6823F4F8127B68196B044B0B4049
:10321000014913438B600BE000380240007000400E
:10322000FFFCFF0FAA4B9B68A94A23F4F813936095
:10323000A74B1A6F7B681B6BC3F30B03A4491343A3
:103240000B677B681B6803F01003002B10D0A04BAA
:10325000D3F88C309E4A23F08073C2F88C309C4B9C
:10326000D3F88C207B689B6B99491343C1F88C3051
:103270007B681B6803F48043002B0AD0944BD3F87F
:10328000903023F440327B685B6E91491343C1F860
:1032900090307B681B6803F40043002B0AD08C4BF2
:1032A000D3F8903023F440227B689B6E8849134307
:1032B000C1F890307B681B6803F48033002B0AD080
:1032C000834BD3F8903023F440127B68DB6E804947
:1032D0001343C1F890307B681B6803F40033002B64
:1032E0000AD07B4BD3F8903023F440027B681B6FED
:1032F00077491343C1F890307B681B6803F04003A3
:10330000002B0AD0724BD3F8903023F003027B6875
:103310005B6C6F491343C1F890307B681B6803F006
:103320008003002B0AD06A4BD3F8903023F00C02B4
:103330007B689B6C66491343C1F890307B681B68BF
:1033400003F48073002B0AD0614BD3F8903023F044
:1033500030027B68DB6C5E491343C1F890307B68B8
:103360001B6803F40073002B0AD0594BD3F890303C
:1033700023F0C0027B681B6D55491343C1F89030A0
:103380007B681B6803F48063002B0AD0504BD3F892
:10339000903023F440727B685B6D4D491343C1F854
:1033A00090307B681B6803F40063002B0AD0484B05
:1033B000D3F8903023F440627B689B6D44491343FB
:1033C000C1F890307B681B6803F48053002B0AD04F
:1033D0003F4BD3F8903023F440527B68DB6D3C497F
:1033E0001343C1F890307B681B6803F40053002B33
:1033F0000AD0374BD3F8903023F440427B681B6EE1
:1034000033491343C1F890307B681B6803F4800391
:10341000002B0AD02E4BD3F8903023F080627B68CB
:103420009B6F2B491343C1F890307B681B6803F4F2
:103430000013002B11D0264BD3F8903023F00062FC
:103440007B68DB6F22491343C1F890307B68DB6FE8
:10345000B3F1006F01D10123BB617B681B6803F0EE
:103460000803002B01D00123BB617B681B6803F4B8
:103470008023002B0AD0164BD3F8903023F04072F3
:103480007B685B6F12491343C1F890307B681B68FF
:1034900003F40003002B0BD00D4BD3F8903023F036
:1034A00080527B68D3F8803009491343C1F89030CB
:1034B000FB69012B06D07B681B6803F00073002BAF
:1034C00000F0D980024B1B68014A23F0806301E0C1
:1034D000003802401360FEF751FE786108E0FEF705
:1034E0004DFE02467B69D31A642B01D9032394E174
:1034F0006C4B1B6803F00063002BF0D17B681B68EA
:1035000003F00103002B21D07B685B6B002B1DD1E6
:10351000644BD3F884301B0C03F003033B61614B15
:10352000D3F884301B0E03F00F03FB607B685B68ED
:103530009A013B691B041A43FB681B061A437B680C
:103540009B681B0757491343C1F884307B681B688D
:1035500003F40023002B04D07B68DB6BB3F5801FE2
:103560000AD07B681B6803F48013002B2ED07B6885
:103570001B6CB3F5800F29D14A4BD3F884301B0C58
:1035800003F003033B61474BD3F884301B0F03F078
:103590000703FB607B685B689A013B691B041A4365
:1035A0007B68DB681B061A43FB681B073D49134316
:1035B000C1F884303B4BD3F88C3023F01F027B687A
:1035C0005B6A013B37491343C1F88C307B681B6849
:1035D00003F08073002B1DD0324BD3F884301B0EC8
:1035E00003F00F033B612F4BD3F884301B0F03F024
:1035F0000703FB607B685B689A017B681B691B049F
:103600001A433B691B061A43FB681B0725491343F2
:10361000C1F884307B681B6803F00073002B11D065
:103620007B685B689A017B681B691B041A437B6893
:10363000DB681B061A437B689B681B071949134309
:10364000C1F88430174B1B68164A43F0806313603F
:10365000FEF794FD786108E0FEF790FD02467B6975
:10366000D31A642B01D90323D7E00E4B1B6803F058
:103670000063002BF0D0BB69012B40F0CD80094BDB
:103680001B68084A23F080531360FEF777FD7861CA
:103690000AE0FEF773FD02467B69D31A642B03D957
:1036A0000323BAE0003802405E4B1B6803F000536E
:1036B000B3F1005FEDD07B681B6803F40023002B9F
:1036C00003D07B68DB6B002B09D07B681B6803F49D
:1036D0008013002B2ED07B681B6C002B2AD1514B02
:1036E000D3F888301B0C03F003033B614D4BD3F838
:1036F00088301B0F03F00703FB607B685B699A014E
:103700003B691B041A437B689B691B061A43FB68D1
:103710001B0744491343C1F88830424BD3F88C301F
:1037200023F4F8527B689B6A013B1B023D4913431B
:10373000C1F88C307B681B6803F40013002B22D087
:103740007B68DB6FB3F1006F1DD1364BD3F8883047
:103750001B0E03F00F033B61324BD3F888301B0F75
:1037600003F00703FB607B685B699A017B681B6A57
:103770001B041A433B691B061A43FB681B072949B4
:103780001343C1F888307B681B6803F00803002BE3
:1037900028D0244BD3F888301B0E03F00F033B6175
:1037A000204BD3F888301B0C03F00303FB607B68CD
:1037B0005B699A01FB681B041A433B691B061A43A9
:1037C0007B68DB691B0717491343C1F88830154B29
:1037D000D3F88C3023F440327B68DB6A1149134301
:1037E000C1F88C300F4B1B680E4A43F080531360B6
:1037F000FEF7C4FC786108E0FEF7C0FC02467B6976
:10380000D31A642B01D9032307E0064B1B6803F08E
:103810000053B3F1005FEFD1002318462037BD46B7
:1038200080BD00BF0038024080B584B000AF786032
:103830007B68002B01D101239DE07B685B6A002B34
:1038400008D17B685B68B3F5827F09D07B68002272
:10385000DA6105E07B6800221A617B6800225A6108
:103860007B6800229A627B6893F85D30DBB2002BA4
:1038700006D17B68002283F85C207868FEF7A8FAFE
:103880007B68022283F85D207B681B681A687B686E
:103890001B6822F040021A607B68DB68B3F5E06FBA
:1038A00002D90023FB6002E04FF48053FB607B6889
:1038B000DB68B3F5706F07D07B68DB68B3F5E06F4A
:1038C00002D07B6800229A627B685B6803F4827294
:1038D0007B689B6803F404431A437B681B6903F00D
:1038E00002031A437B685B6903F001031A437B6898
:1038F0009B6903F400731A437B68DB6903F03803A8
:103900001A437B681B6A03F0800342EA03017B6869
:103910009B6A03F400527B681B680A431A607B6849
:103920009B691B0C03F004027B685B6A03F01003C5
:103930001A437B685B6B03F008031A437B68DB6800
:1039400003F4706342EA0301FB6803F480527B686E
:103950001B680A435A607B681B68DA697B681B68CE
:1039600022F40062DA617B6800221A667B68012219
:1039700083F85D20002318461037BD4680BD80B512
:1039800088B000AFF860B9603B601346FB80FEF77B
:10399000F5FBF861FB887B83FB6893F85D30DBB255
:1039A000012B01D002235CE1BB68002B02D0FB8815
:1039B000002B01D1012354E1FB6893F85C30012B0B
:1039C00001D102234DE1FB68012283F85C20FB68F2
:1039D000032283F85D20FB6800221A66FB68BA6840
:1039E0009A63FB68FA889A87FB68FA88DA87FB682B
:1039F00000221A64FB680022A3F84420FB6800221E
:103A0000A3F84620FB6800221A65FB680022DA64EE
:103A1000FB689B68B3F5004F0FD1FB681B681A6801
:103A2000FB681B6822F040021A60FB681B681A687A
:103A3000FB681B6842F480421A60FB681B681B68C5
:103A400003F04003402B07D0FB681B681A68FB6833
:103A50001B6842F040021A60FB68DB68B3F5E06F58
:103A600052D9FB685B68002B02D07B8B012B45D1C0
:103A7000FB689B6B1A88FB681B68DA60FB689B6BB2
:103A80009A1CFB689A63FB68DB8F9BB2013B9AB27E
:103A9000FB68DA8732E0FB681B689B6803F002036F
:103AA000022B12D1FB689B6B1A88FB681B68DA60DB
:103AB000FB689B6B9A1CFB689A63FB68DB8F9BB26D
:103AC000013B9AB2FB68DA8718E0FEF757FB024623
:103AD000FB69D31A3A689A4203D83B68B3F1FF3FB7
:103AE00002D13B68002B09D1FB68012283F85D20DD
:103AF000FB68002283F85C200323B2E0FB68DB8FC5
:103B00009BB2002BC7D183E0FB685B68002B02D01F
:103B10007B8B012B77D1FB68DB8F9BB2012B12D9FA
:103B2000FB689B6B1A88FB681B68DA60FB689B6B01
:103B30009A1CFB689A63FB68DB8F9BB2023B9AB2CC
:103B4000FB68DA875FE0FB689A6BFB681B680C33E5
:103B500012781A70FB689B6B5A1CFB689A63FB68AF
:103B6000DB8F9BB2013B9AB2FB68DA874BE0FB68C4
:103B70001B689B6803F00203022B2BD1FB68DB8FD1
:103B80009BB2012B12D9FB689B6B1A88FB681B68E0
:103B9000DA60FB689B6B9A1CFB689A63FB68DB8F9F
:103BA0009BB2023B9AB2FB68DA872CE0FB689A6B07
:103BB000FB681B680C3312781A70FB689B6B5A1CED
:103BC000FB689A63FB68DB8F9BB2013B9AB2FB6890
:103BD000DA8718E0FEF7D2FA0246FB69D31A3A6890
:103BE0009A4203D83B68B3F1FF3F02D13B68002BF8
:103BF00009D1FB68012283F85D20FB68002283F86D
:103C00005C2003232DE0FB68DB8F9BB2002BAED141
:103C1000FA693968F86800F019FD0346002B02D0F4
:103C2000FB6820221A66FB689B68002B0AD10023E0
:103C30007B61FB681B68DB687B61FB681B689B68BA
:103C40007B617B69FB68012283F85D20FB680022B1
:103C500083F85C20FB681B6E002B01D0012300E081
:103C6000002318462037BD4680BD80B588B002AF1E
:103C7000F860B9603B601346FB80FB6893F85D30E9
:103C8000DBB2012B01D0022323E1BB68002B02D061
:103C9000FB88002B01D101231BE1FB685B68B3F5B6
:103CA000827F12D1FB689B68002B0ED1FB68042237
:103CB00083F85D20FA883B6800931346BA68B968B8
:103CC000F86800F00AF9034603E1FEF757FA786155
:103CD000FB6893F85C30012B01D10223F9E0FB680B
:103CE000012283F85C20FB68042283F85D20FB68D6
:103CF00000221A66FB68BA681A64FB68FA88A3F89F
:103D00004420FB68FA88A3F84620FB6800229A63E7
:103D1000FB6800229A87FB680022DA87FB68002292
:103D2000DA64FB6800221A65FB68DB68B3F5E06FB4
:103D300008D9FB681B685A68FB681B6822F480522C
:103D40005A6007E0FB681B685A68FB681B6842F40E
:103D500080525A60FB689B68B3F5004F0FD1FB6837
:103D60001B681A68FB681B6822F040021A60FB6837
:103D70001B681A68FB681B6822F480421A60FB68A3
:103D80001B681B6803F04003402B07D0FB681B68CF
:103D90001A68FB681B6842F040021A60FB68DB6827
:103DA000B3F5E06F75D837E0FB681B689B6803F0DC
:103DB0000103012B17D1FB681B6803F10C02FB68A0
:103DC0001B6C1278D2B21A70FB681B6C5A1CFB6811
:103DD0001A64FB68B3F846309BB2013B9AB2FB68A9
:103DE000A3F8462018E0FEF7C9F902467B69D31A0A
:103DF0003A689A4203D83B68B3F1FF3F02D13B686F
:103E0000002B09D1FB68012283F85D20FB680022AA
:103E100083F85C2003235CE0FB68B3F846309BB278
:103E2000002BC1D13BE0FB681B689B6803F00103DA
:103E3000012B15D1FB681B68DA68FB681B6C92B21A
:103E40001A80FB681B6C9A1CFB681A64FB68B3F849
:103E500046309BB2013B9AB2FB68A3F8462018E0BB
:103E6000FEF78CF902467B69D31A3A689A4203D866
:103E70003B68B3F1FF3F02D13B68002B09D1FB68DF
:103E8000012283F85D20FB68002283F85C20032375
:103E90001FE0FB68B3F846309BB2002BC3D17A69B0
:103EA0003968F86800F056FB0346002B02D0FB6827
:103EB00020221A66FB68012283F85D20FB6800223D
:103EC00083F85C20FB681B6E002B01D0012300E00F
:103ED000002318461837BD4680BD80B58AB000AFB4
:103EE000F860B9607A607B8001237B62FEF746F957
:103EF0003862FB6893F85D30FB77FB685B68BB61F9
:103F00007B88FB827B88BB82FB7F012B0CD0BB694B
:103F1000B3F5827F06D1FB689B68002B02D1FB7F43
:103F2000042B01D00223F3E1BB68002B05D07B6892
:103F3000002B02D07B88002B01D10123E8E1FB6834
:103F400093F85C30012B01D10223E1E1FB680122EF
:103F500083F85C20FB6893F85D30DBB2042B03D060
:103F6000FB68052283F85D20FB6800221A66FB6867
:103F70007A681A64FB687A88A3F84620FB687A8816
:103F8000A3F84420FB68BA689A63FB687A88DA87EA
:103F9000FB687A889A87FB680022DA64FB68002253
:103FA0001A65FB68DB68B3F5E06F02D8BB8A012BAA
:103FB00008D9FB681B685A68FB681B6822F48052AA
:103FC0005A6007E0FB681B685A68FB681B6842F48C
:103FD00080525A60FB681B681B6803F04003402B4B
:103FE00007D0FB681B681A68FB681B6842F0400238
:103FF0001A60FB68DB68B3F5E06F40F28380FB6812
:104000005B68002B02D0FB8A012B6FD1FB689B6B96
:104010001A88FB681B68DA60FB689B6B9A1CFB685C
:104020009A63FB68DB8F9BB2013B9AB2FB68DA872D
:104030005CE0FB681B689B6803F00203022B1BD14A
:10404000FB68DB8F9BB2002B16D07B6A012B13D150
:10405000FB689B6B1A88FB681B68DA60FB689B6BCC
:104060009A1CFB689A63FB68DB8F9BB2013B9AB298
:10407000FB68DA8700237B62FB681B689B6803F0A0
:104080000103012B1CD1FB68B3F846309BB2002B17
:1040900016D0FB681B68DA68FB681B6C92B21A804A
:1040A000FB681B6C9A1CFB681A64FB68B3F846300B
:1040B0009BB2013B9AB2FB68A3F8462001237B62C6
:1040C000FEF75CF802463B6AD31A3A6B9A420DD867
:1040D0003B6BB3F1FF3F09D0FB68012283F85D2001
:1040E000FB68002283F85C20032311E1FB68DB8F6F
:1040F0009BB2002B9DD1FB68B3F846309BB2002BDE
:1041000097D1E5E0FB685B68002B03D0FB8A012BAD
:1041100040F0D180FB68DB8F9BB2012B12D9FB688A
:104120009B6B1A88FB681B68DA60FB689B6B9A1CA8
:10413000FB689A63FB68DB8F9BB2023B9AB2FB6819
:10414000DA87B8E0FB689A6BFB681B680C3312785F
:104150001A70FB689B6B5A1CFB689A63FB68DB8FC9
:104160009BB2013B9AB2FB68DA87A4E0FB681B684C
:104170009B6803F00203022B34D1FB68DB8F9BB2F8
:10418000002B2FD07B6A012B2CD1FB68DB8F9BB2DD
:10419000012B12D9FB689B6B1A88FB681B68DA60DD
:1041A000FB689B6B9A1CFB689A63FB68DB8F9BB276
:1041B000023B9AB2FB68DA8712E0FB689A6BFB68F5
:1041C0001B680C3312781A70FB689B6B5A1CFB68D7
:1041D0009A63FB68DB8F9BB2013B9AB2FB68DA877C
:1041E00000237B62FB681B689B6803F00103012BC3
:1041F00048D1FB68B3F846309BB2002B42D0FB6835
:10420000B3F846309BB2012B23D9FB681B68DA68F0
:10421000FB681B6C92B21A80FB681B6C9A1CFB68D3
:104220001A64FB68B3F846309BB2023B9AB2FB6853
:10423000A3F84620FB68B3F846309BB2012B1FD889
:10424000FB681B685A68FB681B6842F480525A601E
:1042500016E0FB681B6803F10C02FB681B6C12780C
:10426000D2B21A70FB681B6C5A1CFB681A64FB689C
:10427000B3F846309BB2013B9AB2FB68A3F84620E4
:1042800001237B62FDF77AFF02463B6AD31A3A6B41
:104290009A4203D83B6BB3F1FF3F02D13B6B002B3B
:1042A00009D1FB68012283F85D20FB68002283F8B6
:1042B0005C2003232CE0FB68DB8F9BB2002B7FF498
:1042C00055AFFB68B3F846309BB2002B7FF44EAF7E
:1042D0003A6A396BF86800F0B9F90346002B08D048
:1042E000FB6820221A66FB68002283F85C20012309
:1042F0000EE0FB68012283F85D20FB68002283F852
:104300005C20FB681B6E002B01D0012300E0002322
:1043100018462837BD4680BD80B588B000AFF8602C
:10432000B9603B601346FB71FDF728FF0246BB6A8C
:104330009B1A3A681344FB61FDF720FFB861394BC3
:104340001B685B011B0DFA6902FB03F37B6155E0FF
:104350003B68B3F1FF3F51D0FDF710FF0246BB6948
:10436000D31AFA699A4202D9FB69002B3DD1FB6846
:104370001B685A68FB681B6822F0E0025A60FB6801
:104380005B68B3F5827F11D1FB689B68B3F5004F82
:1043900004D0FB689B68B3F5806F07D1FB681B688E
:1043A0001A68FB681B6822F040021A60FB689B6A6F
:1043B000B3F5005F0FD1FB681B681A68FB681B68C8
:1043C00022F400521A60FB681B681A68FB681B68BD
:1043D00042F400521A60FB68012283F85D20FB68FA
:1043E000002283F85C20032318E07B69002B02D1B4
:1043F0000023FB6102E07B69013B7B61FB681B687A
:104400009A68BB681340BA689A420CBF0123002324
:10441000DBB21A46FB799A429AD10023184620371C
:10442000BD4680BD0000002080B58AB000AFF860B6
:10443000B9607A603B600023FB75FDF79FFE024682
:104440003B6B9B1A3A6813447B62FDF797FE386218
:10445000FB681B680C33FB613D4B1A6813469B00DD
:104460001344DA00D31A1B0D7A6A02FB03F3BB6113
:1044700061E0BB68B3F5C06F07D17B68002B04D146
:10448000FB691B78DBB2FB75FB7D3B68B3F1FF3F3B
:1044900051D0FDF773FE02463B6AD31A7A6A9A42FC
:1044A00002D97B6A002B3DD1FB681B685A68FB6808
:1044B0001B6822F0E0025A60FB685B68B3F5827FFC
:1044C00011D1FB689B68B3F5004F04D0FB689B6873
:1044D000B3F5806F07D1FB681B681A68FB681B681F
:1044E00022F040021A60FB689B6AB3F5005F0FD1AF
:1044F000FB681B681A68FB681B6822F400521A608C
:10450000FB681B681A68FB681B6842F400521A605B
:10451000FB68012283F85D20FB68002283F85C20A1
:10452000032311E0BB69002B02D100237B6202E070
:10453000BB69013BBB61FB681B689A68BB681340A1
:104540007A689A4295D1002318462837BD4680BD27
:104550000000002080B588B002AFF860B9607A60D2
:10456000FB685B68B3F5827F11D1FB689B68B3F58C
:10457000004F04D0FB689B68B3F5806F07D1FB68E0
:104580001B681A68FB681B6822F040021A60FB680F
:104590005B68B3F5827F12D17B680093BB68002211
:1045A0008021F868FFF7B8FE0346002B21D0FB6896
:1045B0001B6E43F02002FB681A6603233DE0214B8B
:1045C0001B68214AA2FB03235B0D4FF47A7202FBA6
:1045D00003F37B617B69002B0AD07B69013B7B6124
:1045E000FB681B689B6803F08003802BF2D000E01F
:1045F00000BFFB685B68B3F5827F1DD1FB689B68D9
:10460000B3F5004F04D0FB689B68B3F5806F13D1FE
:104610007B680093BB6800224FF4C061F868FFF725
:1046200003FF0346002B07D0FB681B6E43F02002FC
:10463000FB681A66032300E0002318461837BD46BE
:1046400080BD00BF00000020819F5E1680B588B04D
:1046500002AFF860B9607A607B680093BB680022A3
:104660004FF4C051F868FFF7DFFE0346002B07D078
:10467000FB681B6E43F02002FB681A66032346E0CA
:10468000254B1B68254AA2FB03235B0D4FF47A726E
:1046900002FB03F37B61FB685B68B3F5827F12D199
:1046A0007B680093BB6800228021F868FFF734FE26
:1046B0000346002B16D0FB681B6E43F02002FB68FC
:1046C0001A66032323E07B69002B0AD07B69013B38
:1046D0007B61FB681B689B6803F08003802BF2D032
:1046E00000E000BF7B680093BB6800224FF4C0610C
:1046F000F868FFF799FE0346002B07D0FB681B6E96
:1047000043F02002FB681A66032300E000231846EA
:104710001837BD4680BD00BF00000020819F5E1697
:1047200080B582B000AF78607B68002B01D1012397
:1047300040E07B68DB6F002B06D17B68002283F8AA
:1047400078207868FDF7A6FB7B682422DA677B680F
:104750001B681A687B681B6822F001021A607B687C
:104760005B6A002B02D0786800F016FB786800F0D6
:10477000AFF80346012B01D101231BE07B681B68C6
:104780005A687B681B6822F490425A607B681B68F9
:104790009A687B681B6822F02A029A607B681B6813
:1047A0001A687B681B6842F001021A60786800F0A2
:1047B00095FB034618460837BD4680BD80B58AB0D4
:1047C00002AFF860B9603B601346FB80FB68DB6FAB
:1047D000202B77D1BB68002B02D0FB88002B01D1A6
:1047E000012370E0FB680022C3F88420FB682122CB
:1047F000DA67FDF7C3FC7861FB68FA88A3F85020FC
:10480000FB68FA88A3F85220FB689B68B3F5805FC9
:1048100008D1FB681B69002B04D10023FB61BB6836
:10482000BB6103E0BB68FB610023BB612FE03B6819
:1048300000937B6900228021F86800F0A6FB034604
:10484000002B04D0FB682022DA6703233BE0FB69DE
:10485000002B0BD1BB691B881A46FB681B68C2F38F
:1048600008029A62BB690233BB6107E0FB691A78F0
:10487000FB681B689A62FB690133FB61FB68B3F854
:1048800052309BB2013B9AB2FB68A3F85220FB68FE
:10489000B3F852309BB2002BC9D13B6800937B69BF
:1048A00000224021F86800F070FB0346002B04D082
:1048B000FB682022DA67032305E0FB682022DA6721
:1048C000002300E0022318462037BD4680BD0000CB
:1048D00080B588B000AF78600023BB777B689A68AA
:1048E0007B681B691A437B685B691A437B68DB69D9
:1048F00013437B617B681B681A68A64B13407A6878
:10490000126879690B4313607B681B685B6823F44A
:1049100040517B68DA687B681B680A435A607B6891
:104920009B697B617B681B6A7A6913437B617B6847
:104930001B689B6823F430617B681B687A690A43B3
:104940009A607B681B68944A934220D1934BD3F8BA
:10495000903003F00303032B16D801A252F823F082
:10496000714900087D49000877490008834900081B
:104970000123FB7750E10223FB774DE10423FB7712
:104980004AE10823FB7747E11023FB7744E17B688A
:104990001B68834A934232D1804BD3F8903003F0A6
:1049A0000C030C2B28D801A252F823F0E14900088F
:1049B000F9490008F9490008F9490008ED490008DB
:1049C000F9490008F9490008F9490008E7490008D1
:1049D000F9490008F9490008F9490008F3490008B5
:1049E0000023FB7718E10223FB7715E10423FB7713
:1049F00012E10823FB770FE11023FB770CE17B68C2
:104A00001B68684A934220D1644BD3F8903003F07E
:104A10003003302B13D0302B14D8202B09D0202B6F
:104A200010D8002B02D0102B06D00BE00023FB7710
:104A3000F2E00223FB77EFE00423FB77ECE00823AE
:104A4000FB77E9E01023FB77E6E07B681B68564ABA
:104A5000934220D1514BD3F8903003F0C003C02BC8
:104A600013D0C02B14D8802B09D0802B10D8002B4A
:104A700002D0402B06D00BE00023FB77CCE00223D2
:104A8000FB77C9E00423FB77C6E00823FB77C3E08C
:104A90001023FB77C0E07B681B68444A934225D112
:104AA0003E4BD3F8903003F44073B3F5407F17D0FA
:104AB000B3F5407F17D8B3F5007F0BD0B3F5007F77
:104AC00011D8002B03D0B3F5807F06D00BE0002374
:104AD000FB77A1E00223FB779EE00423FB779BE0BA
:104AE0000823FB7798E01023FB7795E07B681B6831
:104AF0002F4A934225D1294BD3F8903003F44063D9
:104B0000B3F5406F17D0B3F5406F17D8B3F5006F0A
:104B10000BD0B3F5006F11D8002B03D0B3F5806F25
:104B200006D00BE00123FB7776E00223FB7773E0EE
:104B30000423FB7770E00823FB776DE01023FB77FD
:104B40006AE07B681B681B4A934238D1134BD3F849
:104B5000903003F44053B3F5405F17D0B3F5405F96
:104B60002AD8B3F5005F0BD0B3F5005F24D8002B33
:104B700003D0B3F5805F06D01EE00023FB774BE047
:104B80000223FB7748E00423FB7745E00823FB770B
:104B900042E000BFF369FFEF00100140003802401F
:104BA0000044004000480040004C004000500040DD
:104BB00000140140007800401023FB772CE07B6854
:104BC0001B68724A934225D1714BD3F8903003F49D
:104BD0004043B3F5404F17D0B3F5404F17D8B3F566
:104BE000004F0BD0B3F5004F11D8002B03D0B3F515
:104BF000804F06D00BE00023FB770DE00223FB770C
:104C00000AE00423FB7707E00823FB7704E0102386
:104C1000FB7701E01023FB777B68DB69B3F5004F7E
:104C20005BD1FB7F082B28D801A252F823F000BFEC
:104C3000554C00085D4C0008654C00087B4C000892
:104C40006B4C00087B4C00087B4C00087B4C000838
:104C5000734C0008FEF7D0F9B86113E0FEF7E0F9F5
:104C6000B8610FE04B4BBB610CE0FEF7F3F8B861A5
:104C700008E04FF40043BB6104E00023BB61012363
:104C8000BB7700BFBB69002B74D0BB695A007B683F
:104C90005B685B081A447B685B68B2FBF3F33B61BB
:104CA0003B690F2B16D93B69B3F5803F12D23B69A4
:104CB0009BB223F00F03FB813B695B089BB203F0BF
:104CC00007039AB2FB891343FB817B681B68FA894F
:104CD000DA604FE00123BB774CE0FB7F082B28D83C
:104CE00001A252F823F000BF0D4D0008154D000839
:104CF0001D4D0008334D0008234D0008334D0008BA
:104D0000334D0008334D00082B4D0008FEF774F9B1
:104D1000B86113E0FEF784F9B8610FE01D4BBB6189
:104D20000CE0FEF797F8B86108E04FF40043BB6170
:104D300004E00023BB610123BB7700BFBB69002BEC
:104D400018D07B685B685A08BB691A447B685B684B
:104D5000B2FBF3F33B613B690F2B09D93B69B3F518
:104D6000803F05D23B699AB27B681B68DA6001E03C
:104D70000123BB777B6800229A667B680022DA6693
:104D8000BB7F18462037BD4680BD00BF007C004079
:104D9000003802400024F40080B483B000AF786093
:104DA0007B685B6A03F00803002B0AD07B681B68F2
:104DB0005B6823F400417B685A6B7B681B680A437D
:104DC0005A607B685B6A03F00103002B0AD07B68A2
:104DD0001B685B6823F400317B689A6A7B681B68F8
:104DE0000A435A607B685B6A03F00203002B0AD017
:104DF0007B681B685B6823F480317B68DA6A7B68B8
:104E00001B680A435A607B685B6A03F00403002B4B
:104E10000AD07B681B685B6823F480217B681A6B6F
:104E20007B681B680A435A607B685B6A03F0100367
:104E3000002B0AD07B681B689B6823F480517B6839
:104E40009A6B7B681B680A439A607B685B6A03F015
:104E50002003002B0AD07B681B689B6823F4005159
:104E60007B68DA6B7B681B680A439A607B685B6AC5
:104E700003F04003002B1AD07B681B685B6823F4A7
:104E800080117B681A6C7B681B680A435A607B68D8
:104E90001B6CB3F5801F0AD17B681B685B6823F429
:104EA000C0017B685A6C7B681B680A435A607B6848
:104EB0005B6A03F08003002B0AD07B681B685B6889
:104EC00023F400217B689A6C7B681B680A435A6054
:104ED00000BF0C37BD465DF8047B704780B58CB0D1
:104EE00002AF78607B680022C3F88420FDF746F9A2
:104EF00078627B681B681B6803F00803082B2ED1BF
:104F00006FF07E4300937B6A00224FF400117868B3
:104F100000F03BF80346002B21D07B681B683B6107
:104F20003B6953E8003FFB60FB6823F080033B6272
:104F30007B681B681A463B6AFB61BA61B969FA690A
:104F400041E800237B617B69002BE6D17B6820224E
:104F5000DA677B68002283F87820032311E07B68FE
:104F60002022DA677B682022C3F880207B68002239
:104F70001A667B6800225A667B68002283F87820D4
:104F8000002318462837BD4680BD80B584B000AFE9
:104F9000F860B9603B601346FB714FE0BB69B3F149
:104FA000FF3F4BD0FDF7EAF802463B68D31ABA69D7
:104FB0009A4202D3BB69002B01D103234EE0FB6868
:104FC0001B681B6803F00403002B37D0BB68802BE1
:104FD00034D0BB68402B31D0FB681B68DB6903F021
:104FE0000803082B10D1FB681B6808221A62F868B6
:104FF00000F038F8FB680822C3F88420FB68002220
:1050000083F87820012329E0FB681B68DB6903F43F
:105010000063B3F5006F11D1FB681B684FF40062A9
:105020001A62F86800F01EF8FB682022C3F884209A
:10503000FB68002283F8782003230FE0FB681B68DD
:10504000DA69BB681340BA689A420CBF0123002397
:10505000DBB21A46FB799A42A0D0002318461037DB
:10506000BD4680BD80B495B000AF78607B681B689A
:105070007B637B6B53E8003F3B633B6B23F4907394
:10508000FB647B681B681A46FB6C3B64FA63F96B34
:105090003A6C41E80023BB63BB6B002BE6D17B6815
:1050A0001B6808333B623B6A53E8003FFB61FB69C6
:1050B00023F00103BB647B681B680833BA6CFA6297
:1050C000BB62B96AFA6A41E800237B627B6A002B03
:1050D000E5D17B681B6E012B18D17B681B68FB60D8
:1050E000FB6853E8003FBB60BB6823F010037B64A0
:1050F0007B681B681A467B6CBB617A617969BA6907
:1051000041E800233B613B69002BE6D17B6820220C
:10511000C3F880207B6800221A667B6800229A66AA
:1051200000BF5437BD465DF8047B70470EB410B520
:105130009DB01FAB029006906FF000410A480791A6
:1051400004910A4953F8042B0591002402A9006830
:1051500001931B9400F094F9029B1C701DB0BDE8F4
:10516000104003B0704700BF0C0000200802FFFF92
:1051700002440346934200D1704703F8011BF9E74C
:10518000014B1868704700BF0C00002070B50D4D32
:105190000D4C641BA4100026A64209D10B4D0C4CEB
:1051A00000F064FC641BA4100026A64205D170BD6B
:1051B00055F8043B98470136EEE755F8043B98470D
:1051C0000136F2E7305B0008305B0008305B000816
:1051D000345B00087047704738B50546002941D058
:1051E00051F8043C0C1F002BB8BFE41800F0E0F8A5
:1051F0001D4A136833B9636014602846BDE838401F
:1052000000F0DCB8A34208D9206821188B4201BF06
:1052100019685B6809182160EDE71A465B680BB1F5
:10522000A342FAD911685018A0420BD1206801445A
:10523000501883421160E0D118685B6853600844DD
:105240001060DAE702D90C232B60D6E7206821181A
:105250008B4204BF19685B68636004BF0918216052
:105260005460CAE738BD00BFE002002070B50F4EA1
:105270000C463168054611B900F0A4FB30602146A8
:10528000284600F09FFB431C03D14FF0FF3420461B
:1052900070BDC41C24F00304A042F8D0211A284693
:1052A00000F090FB0130F2D1EFE700BFDC020020FC
:1052B0002DE9F843CD1C25F0030508350C2D38BF2A
:1052C0000C25002D064601DBA94204D90C233360CE
:1052D0000020BDE8F883DFF8D48000F069F8D8F842
:1052E00000301C4644BB29463046FFF7BFFF431C35
:1052F000044658D1D8F800402746002F43D1002C4F
:105300004BD023683946304604EB030900F05AFBC2
:10531000814542D121686D1A29463046FFF7A6FF24
:1053200001303AD023682B442360D8F800305A6803
:1053300062BBC8F800700FE02268521B20D40B2A11
:1053400017D96119A342256018BF5960636808BF67
:10535000C8F8001062514B60304600F02FF804F19D
:105360000B00231D20F00700C21A1CBF1B1AA350FC
:10537000AFE76268A3420CBFC8F800205A60EBE7B1
:1053800023466468AEE73C467F68B6E71A465B682A
:10539000A342FBD100235360DEE70C233360304689
:1053A00000F00CF894E70560D6E700BFE0020020AB
:1053B0000148FFF70FBF00BFD80200200148FFF7E8
:1053C0000ABF00BFD80200202DE9F0478E681F46B3
:1053D000BE420B6882460C4690462DD8B1F90C208F
:1053E00012F4906F26D06569096905EB4505A3EBBA
:1053F000010905EBD5757B1C4B446D109D4238BFF0
:105400001D46530527D52946FFF752FF064660B3D0
:1054100021694A4600F0E6FAA38923F4906343F039
:105420008003A381266165614E44A5EB09052660D2
:10543000A5603E46BE4200D93E46206832464146FF
:1054400000F0A6FAA3689B1BA36023683344236083
:105450000020BDE8F0872A4600F0D2FA0646002870
:10546000E0D121695046FFF7B7FE0C23CAF800309F
:10547000A38943F04003A3814FF0FF30E9E7000028
:105480002DE9F04F98468B891B069DB007460D46C7
:10549000144610D50B6973B94021FFF709FF286046
:1054A000286130B90C233B604FF0FF301DB0BDE8E0
:1054B000F08F40236B610023099320238DF829305E
:1054C000CDF80C803023DFF89C818DF82A304FF026
:1054D000010923469A4613F8012B0AB1252AF9D16E
:1054E000BAEB040B0BD05B46224629463846FFF741
:1054F0006BFF013000F0A780099A5A4409929AF88C
:105500000030002B00F09F8000234FF0FF32CDE9E8
:1055100005230AF1010A049307938DF853301A9377
:105520005446052214F8011B4E48FAF779FE049AF6
:10553000D8B9D00644BF20238DF85330110744BF9B
:105540002B238DF853309AF800302A2B15D0079A68
:10555000544600204FF00A0C214611F8013B303B25
:10556000092B4BD9B0B1079214E0A0EB080309FA5C
:1055700003F313430493A246D2E7039B191D1B6850
:105580000391002BBBBF5B4242F0020207930793DB
:10559000B8BF049223782E2B0AD163782A2B32D1FC
:1055A000039B1A1D1B68039243EAE37302340593BD
:1055B000DFF8C0A0217803225046FAF731FE38B157
:1055C000049BA0EB0A004022824013430134049361
:1055D00014F8011B24488DF828100622FAF720FE43
:1055E000002836D0214B1BBB039B073323F0070356
:1055F00008330393099B334409936AE70CFB023297
:105600000C460120A8E700230134059319464FF00A
:105610000A0C204610F8012B303A092A03D9002B36
:10562000C6D00591C4E70CFB012104460123F0E735
:1056300003AB00932A460E4B04A93846AFF3008013
:10564000421C0646D6D1AB895B063FF52DAF0998C3
:105650002CE703AB00932A46054B04A9384600F01B
:1056600079F8EDE7F45A0008FE5A0008000000003F
:10567000C9530008FA5A00082DE9F0471646984623
:105680008A680B69DDF820909342B8BF13463360F7
:1056900091F8432007460C460AB101333360236872
:1056A000990642BF336802333360256815F006055A
:1056B00006D104F1190AE36832689B1AAB4226DC72
:1056C00094F843302268003B18BF012392062BD484
:1056D00004F1430241463846C84701301ED02368D2
:1056E000226903F00603042B02BFE5683368ED1A54
:1056F000A3680CBF25EAE57500259342C4BF9B1A39
:10570000ED1800261A34B5421AD1002008E0012312
:10571000524641463846C847013003D14FF0FF306A
:10572000BDE8F0870135C6E7E1185A1C302081F842
:105730004300224494F8451082F843100233C7E72F
:105740000123224641463846C8470130E6D001369B
:10575000D9E700002DE9FF470F7E0C9E782F914678
:1057600080460C469A4601F1430207D8622F0AD8B8
:10577000002F00F0D180582F00F0B88004F14206CD
:1057800084F842703AE0A7F16303152BF6D801A123
:1057900051F823F0ED570008015800087D57000824
:1057A0007D5700087D5700087D5700080158000804
:1057B0007D5700087D5700087D5700087D57000879
:1057C000FF5800082B580008B95800087D570008FA
:1057D0007D570008215900087D5700082B58000804
:1057E0007D5700087D570008C158000833681A1D0E
:1057F0001B68326004F1420684F8423001239CE0C9
:1058000033682068191D3160060601D51D6803E064
:105810004506FBD5B3F90050002D03DA2D236D4268
:1058200084F8433058480A2311E021683368080699
:1058300053F8045B02D4490648BFADB26F2F5248FB
:10584000336014BF0A230823002184F843106668DC
:10585000A660002E05DB21682E4321F004012160A3
:105860004BD01646B5FBF3F103FB1157C75D06F8A5
:10587000017D2F46BB420D46F4D9082B0BD123687E
:10588000DF0708D5236961689942DEBF302306F837
:10589000013C06F1FF36921B2261CDF800A04B4679
:1058A00003AA21464046FFF7E7FE01304AD14FF0F8
:1058B000FF3004B0BDE8F087236843F02003236085
:1058C0003248782784F84570236831681F0651F8FC
:1058D000045B02D45F0648BFADB23160D90744BF54
:1058E00043F0200323601DB11023ADE72648E9E70C
:1058F000236823F020032360F6E71646BDE73368EC
:1059000025686169181D30602E061B6801D5196075
:1059100002E06806FBD51980002323611646BCE728
:1059200033681A1D32601E68626800213046FAF73B
:1059300077FC08B1801B606063682361002384F8F2
:105940004330AAE72369324649464046D0470130F2
:10595000ADD023689B0713D4E068039B9842B8BF7F
:105960001846A6E70123324649464046D047013053
:105970009DD00135E36803995B1AAB42F2DCEBE79B
:10598000002504F11906F5E7055B0008165B000821
:10599000884210B501EB020402D98442234607D89D
:1059A000431EA14208D011F8012B03F8012FF8E79C
:1059B000024401468A4200D110BD13F8014D02F89D
:1059C000014DF7E738B5064D0023044608462B6025
:1059D000FCF712FB431C02D12B6803B1236038BDD6
:1059E000D40200200A44914200F1FF3300D17047F5
:1059F00010B511F8014B03F8014F9142F9D110BDD8
:105A00002DE9F041074614460D4621B9BDE8F041A5
:105A10001146FFF74DBC2AB9FFF7DEFB25462846A5
:105A2000BDE8F08100F01AF88442064602D8B4EBD3
:105A3000500FF4D821463846FFF73AFC804608B9A3
:105A40004546ECE7B4422246294628BF3246FFF7D6
:105A5000C9FF29463846FFF7BFFBF1E751F8043C80
:105A6000181F002BBCBF0B58C0187047F8B500BFFB
:105A7000F8BC08BC9E467047F8B500BFF8BC08BC2F
:045A80009E46704787
:105A84004572726F723A20436F756C64206E6F7446
:105A940020696E697469616C697A652074686572DD
:105AA4006D6F636F75706C650A0D000054313A2098
:105AB400252E32662C2054323A20252E32662C2094
:105AC40054333A20252E3266202C2054343A202593
:105AD4002E326620430A0D00000000000000000082
